:100000000C94500B0C947A0B0C947A0B0C945C139C
:100010000C947A0B0C947A0B0C947A0B0C947A0B4C
:100020000C947A0B0C947A0B0C947A0B0C947A0B3C
:100030000C94A81F0C942D5A0C947A0B0C947A0BE8
:100040000C947A0B0C947A0B0C947A0B0C947A0B1C
:100050000C947A0B0C947A0B0C947A0B0C9401523E
:100060000C947A0B0C940A550C9440550C947A0B12
:100070000C947A0B0C947A0B0C947A0B0C947A0BEC
:100080000C947A0B0C947A0B0C947A0B0C947A0BDC
:100090000C947A0B0C947A0B0C947A0B0C947A0BCC
:1000A0000C947A0B0C947A0B0C947A0B0C947A0BBC
:1000B0000C947A0B0C947A0B0C947A0B0C947A0BAC
:1000C0000C947A0B0C947A0B0C947A0B0C947A0B9C
:1000D0000C947A0B0C947A0B0C947A0B0C947A0B8C
:1000E0000C947A0B0C947A0B0C947A0B0C947A0B7C
:1000F0000C947A0B0C947A0B0C947A0B0C947A0B6C
:100100000C947A0B0C947A0B0C947A0B0C947A0B5B
:100110000C947A0B0C947A0B0C947A0B0C947A0B4B
:100120000000000000000000065F0600000703005A
:10013000070300247E247E2400242B6A120000631F
:10014000130864630036495620500000070300007E
:1001500000003E4100000000413E000000083E1C3F
:100160003E080008083E08080000E06000000008A3
:100170000808080800006060000000201008040261
:10018000003E5149453E0000427F40000062514917
:100190004946002249494936001814127F10002FA1
:1001A00049494931003C4A49493000017109050378
:1001B00000364949493600064949291E00006C6C41
:1001C00000000000EC6C0000000814224100002434
:1001D00024242424000041221408000201590906A5
:1001E000003E415D551E007E1111117E007F494980
:1001F0004936003E41414122007F4141413E007F5E
:1002000049494941007F09090901003E4149497AAC
:10021000007F0808087F0000417F41000030404017
:10022000403F007F08142241007F40404040007F53
:100230000204027F007F0204087F003E4141413EEC
:10024000007F09090906003E4151215E007F09092E
:1002500019660026494949320001017F0101003F2A
:100260004040403F001F2040201F003F403C403F97
:1002700000631408146300070870080700714945FB
:10028000430000007F4141000002040810200000EC
:1002900041417F00000402010204008080808080D0
:1002A000000003070000002054545478007F4444A9
:1002B000443800384444442800384444447F0038DB
:1002C0005454540800087E0909000018A4A4A47C12
:1002D000007F040478000000007D4000004080841E
:1002E0007D00007F102844000000007F4000007C5B
:1002F00004180478007C040478000038444444382E
:1003000000FC444444380038444444FC00447844ED
:10031000040800085454542000043E442400003CC7
:1003200040207C00001C2040201C003C6030603CD1
:10033000006C10106C00009CA0603C0000645454E1
:100340004C0000083E414100000000770000000022
:1003500041413E08000201020100003C2623263CE8
:1003600000000000000000000000065F5F060000C3
:100370000007070007070000147F7F147F7F140029
:10038000242E2A6B6B3A1200466630180C66620007
:10039000307A4F5D377A4800000407030000000000
:1003A000001C3E63410000000041633E1C00000051
:1003B000082A3E1C1C3E2A080008083E3E08080089
:1003C000000080E06000000000080808080808003D
:1003D00000000060600000006030180C060301009F
:1003E0003E7F594D477F3E0040427F7F40400000A6
:1003F000627359496F660000226349497F360000E5
:10040000181C16537F7F5000276745457D39000033
:100410003C7E4B4979300000030371790F070000DF
:10042000367F49497F360000064F49693F1E00006C
:100430000000006666000000000080E66600000024
:10044000081C366341000000001414141414140036
:10045000004163361C080000000203595D070200DA
:100460003E7F415D5D5F0E007C7E13137E7C00004D
:10047000417F7F49497F36001C3E63414163220032
:10048000417F7F41633E1C00417F7F495D416300A6
:10049000417F7F491D0103001C3E634151337200BF
:1004A0007F7F08087F7F000000417F7F41000000C0
:1004B000307040417F3F0100417F7F081C7763001F
:1004C000417F7F41406070007F7F0E1C0E7F7F0068
:1004D0007F7F060C187F7F001C3E6341633E1C003B
:1004E000417F7F49090F06001E3F2131617F5E0079
:1004F000417F7F09197F6600266F4D49597332008D
:1005000003417F7F410300007F7F40407F7F0000E9
:100510001F3F60603F1F00003F7F6030607F3F00F3
:1005200063771C081C776300074F78784F0700003B
:10053000476371594D677300007F7F4141000000A0
:100540000103060C183060000041417F7F0000006D
:10055000080C0603060C0800808080808080808064
:100560000000030704000000207454543C7840004D
:10057000417F3F4848783000387C44446C28000074
:10058000307848493F7F4000387C54545C18000064
:10059000487E7F490306000098BCA4A4F87C0400B0
:1005A000417F7F08047C780000447D7D400000008E
:1005B00060E08084FD7D0000417F7F10386C440046
:1005C00000417F7F400000007C7C18781C7C780014
:1005D0007C7804047C780000387C44447C3800003B
:1005E00084FCF8A4243C1800183C24A4F8FC8400E3
:1005F000447C784C040C1800485C5474642400005B
:1006000004043E7F442400003C7C40403C7C40008D
:100610001C3C60603C1C00003C7C6030607C3C000A
:10062000446C3810386C44009CBCA0A0FC7C0000DA
:100630004C64745C4C64000008083E774141000043
:1006400000000077770000004141773E0808000075
:10065000020301030203010070784C464C787000DD
:100660000101637801110128633203C0F80002C35D
:100670000402C40502D01D02B30002B58B0138028A
:100680003A0202360002B09F05F012121212012047
:10069000012900203A2000756E6D617463686564FD
:1006A00020726967687420627261636B65740020F0
:1006B0003A2000754C69737020342E312000506F41
:1006C0007765722E2E2E2075702E2E2E00696E6389
:1006D0006F6D706C657465206C697374006D616C0E
:1006E000666F726D6564206C69737400756E6B6EF5
:1006F0006F776E20636861726163746572004E7516
:100700006D626572206F7574206F662072616E670E
:100710006500696C6C6567616C2063686172616318
:100720007465722061667465722023006572726F51
:100730007220696E207072696E74003C636C6F7316
:100740007572653E006E696C002D73747265616D23
:100750002000202E2000696E76616C696420737918
:100760006D626F6C004E756C6C00534F48005354B3
:10077000580045545800454F5400454E51004143E0
:100780004B0042656C6C004261636B737061636522
:1007900000546162004E65776C696E6500565400C6
:1007A000506167650052657475726E00534F005357
:1007B0004900444C45004443310044433200444323
:1007C0003300444334004E414B0053594E004554CE
:1007D000420043414E00454D00535542004573636E
:1007E0006170650046530047530052530055530053
:1007F00053706163650000696C6C6567616C2066AD
:10080000756E6374696F6E002072657475726E65C3
:100810006420006E6F742076616C69642068657274
:10082000650063616E2774206265207573656420BE
:10083000617320612066756E6374696F6E00636119
:100840006E2774206576616C756174652061206423
:100850006F74746564207061697200696C6C65679F
:10086000616C2066756E6374696F6E00756E646589
:1008700066696E65640065736361706521007374F9
:1008800061636B206F766572666C6F77006573636A
:100890006170652100C910000000C710000000BF92
:1008A00010000000B510000000AF10000000A810FC
:1008B00000000FA41000000F9F1000000F97100001
:1008C000000F931000000F92100000008C10D7252D
:1008D000118910BE3B0F831036332F7C10D83B1389
:1008E0007710393C2F72106F3C0F6B1013410F665D
:1008F00010973C2262109C3B115D10293D1258104C
:10090000313D125310393D2F4C106D3D1F441035B1
:100910003E1F3E108F33013610D633012B1023417A
:100920001F2610D43E111A109F411F1110FC411FA9
:1009300008108D421FFB0FA3432FF30F031A0FF272
:100940000F000000EC0F4A3F0FE90F9C4423E40F17
:10095000BE440FDF0F03451FD80F27451FD30F4B92
:10096000451FCF0FBE450FCE0F000000CA0F061A5D
:1009700011C50F061A11C00FC52322BB0FB31C11DE
:10098000B50FE01C11AF0FC21C11A70F131A11A055
:100990000F1B34119C0F28322F940F241A11910F22
:1009A000511E228D0F6E3211870F6E3211830F8A06
:1009B00032117E0F8A3211790FA63211740FA932CB
:1009C000116D0FA93211680FAC3211630FAF3211E4
:1009D0005D0FB23211570FB53211510FB832114BB2
:1009E0000FBB3211450FBB32113F0FBE3211390F11
:1009F000C13211330FC432112D0FC73211260F39F6
:100A00003411210F361A0F190F5D3411150F8C3464
:100A1000220F0FFC3122080FC63422020FF5492F96
:100A2000FA0E2B4A1FF30EF2340FEE0E354A2FE763
:100A30000E7E4B2FE00EBA4B2FDE0EF9280FDC0E88
:100A40003B291FDA0E7F290FD80EBA292FCF0EBAF5
:100A50002912CB0EF32922C80E2A2A11C50E3E2ACE
:100A600011C10E522A11BA0E6A2A11B60E752A1F2A
:100A7000B20E972A1FAF0EB92A1FAD0E302B1FAB37
:100A80000E3B2B1FA80E462B1FA60E512B1FA30E8D
:100A90005C2B1F9D0E672B11960E792B11900E8AE1
:100AA0002B118B0E9B2B11850EAC2B117C0E371A44
:100AB00011740E371A116F0E813522650E172D1124
:100AC0005B0EBD2B11500E481A11480E591A1140D9
:100AD0000EE22D22380EF62D22300E0A2E222B0E7B
:100AE000C24B22240E632811180E1E2E1F110EAEAB
:100AF0003523000EA14811F00D4C2811E00DFB2705
:100B000011D90DC62B0FD20DE22B0FCB0DFE2B0FE3
:100B1000C40D1A2C11C00D252C22B80D562C22B351
:100B20000DE04511AB0D864B00A40D6A1A00990D1E
:100B3000143611930DF64C008E0DB44801880D004B
:100B40002F12820D112F127C0D2C2F12750D3D2F9F
:100B5000016B0DC22E02610DCC2E01560D442F12D9
:100B6000490D5C2F123E0D792F12320D6725122F81
:100B70000D7221002A0DA523001F0D635001140DD5
:100B8000245101100D5A2300080DA53022FC0C7BC6
:100B90002C11EF0CEF3022E40C343111D40C4E3117
:100BA00011BF0CA52511B30C5E3122A60C6C1A11D5
:100BB000A00C8E2C11990CAB2300930CA22C118E3F
:100BC0000CFB3203850C8D3112800C7B4F11790C9C
:100BD0009E2F126F0CBA2F01680C52362F600CF545
:100BE0004811530CB84800520C000000450C080096
:100BF000003F0C0100993A0C00009992100000008F
:100C0000350CED4D00300CB023002B0C202D34257D
:100C10000CB22C331E0CF62C0192100000007363F2
:100C2000726F6C6C00706978656C0070757463002D
:100C3000676574630073636C73003A6C6F77003A96
:100C400068696768003A6C65642D6275696C7469DF
:100C50006E00006C6973742D6C6962726172790048
:100C60007265717569726500666F726D617400708E
:100C70007072696E74616C6C00707072696E740071
:100C800065646974007265676973746572006E6F7C
:100C9000746500736C656570006D696C6C697300D8
:100CA00064656C6179006461637265666572656E26
:100CB000636500616E616C6F67777269746500616E
:100CC0006E616C6F67726561647265736F6C757469
:100CD000696F6E00616E616C6F67726566657265E3
:100CE0006E636500616E616C6F677265616400645C
:100CF00069676974616C77726974650064696769B2
:100D000074616C726561640070696E6D6F6465001A
:100D1000636C73006C6F61642D696D61676500734E
:100D20006176652D696D61676500726F6F6D006733
:100D30006300726573746172742D69326300777237
:100D40006974652D6C696E650077726974652D73C1
:100D50007472696E670077726974652D6279746563
:100D600000726561642D6C696E6500726561642D49
:100D70006279746500746572707269007072696E70
:100D800063007072696E74007072696E3100726512
:100D9000616400627265616B006D616B756E626F9C
:100DA000756E64006C6F63616C7300676C6F626179
:100DB0006C73006576616C006C6F676269747000BB
:100DC000617368006C6F676E6F74006C6F67786F2B
:100DD00072006C6F67696F72006C6F67616E6400A0
:100DE0007072696E312D746F2D737472696E670045
:100DF0007072696E632D746F2D737472696E670003
:100E0000726561642D66726F6D2D737472696E67A1
:100E10000073756273657100636F6E636174656EF4
:100E200061746500737472696E6700736F72740029
:100E3000737472696E673E00737472696E673C000A
:100E4000737472696E673D00737472696E677000C7
:100E50006368617261637465727000636F64652DAD
:100E60006368617200636861722D636F646500631B
:100E7000686172006E756D6265727000696E74658E
:100E800067657270006576656E70006F64647000EF
:100E90007A65726F70006D696E75737000706C7535
:100EA0007370003E3D003E003C3D003C003D002F85
:100EB0003D006D696E006D61780072616E646F6DEA
:100EC0000061627300312D00312B006D6F6400747E
:100ED00072756E63617465002F002A002D002B006F
:100EE0006D617063616E006D6170636172006D6150
:100EF000706300617070656E640066756E63616C2E
:100F00006C006170706C79006D656D626572006176
:100F100073736F63006E74680072657665727365D3
:100F2000006C697374006C656E6774680063646458
:100F3000647200636464617200636461647200637C
:100F400064616172007468697264006361646472F0
:100F50000063616461720063616164720063616176
:100F6000617200636464720063646172007365633C
:100F70006F6E640063616472006361617200726528
:100F800073740063647200666972737400636172E3
:100F90000065710073747265616D70007365740033
:100FA000626F756E64700073796D626F6C70006350
:100FB0006F6E7370006C697374700061746F6D0094
:100FC000636F6E73006E756C6C006E6F7400006101
:100FD0006E64006361736500756E6C657373007792
:100FE00068656E00636F6E640069660070726F679B
:100FF0006E0000646566636F646500776974682DD0
:1010000073642D6361726400776974682D7370690D
:1010100000776974682D69326300776974682D738D
:10102000657269616C0074696D6500666F722D6D23
:10103000696C6C697300756E7472616365007472BB
:1010400061636500646F74696D657300646F6C69DA
:1010500073740073657466006465636600696E632B
:101060006600706F700070757368007265747572D9
:101070006E006C6F6F7000736574710064656676E6
:10108000617200646566756E006F720071756F74D1
:101090006500002A702A00636C6F73757265006CBE
:1010A00065742A006C6574006C616D626461002671
:1010B0007265737400266F7074696F6E616C006E78
:1010C0006F7468696E670074006E696C00696E7693
:1010D000616C696420646972656374697665006334
:1010E000616E2774206E657374207E7B0071756F4E
:1010F0007465206E6F742076616C6964006E6F2079
:101100006D61746368696E67207E7B006E6F74200A
:10111000737570706F72746564002075730A0020B7
:1011200062797465732C2054696D653A20005370A0
:101130006163653A20006E6F7420616E20693263CE
:101140002073747265616D000A427265616B210AD9
:10115000006F6E6C7920737570706F72747320738A
:101160007472696E67730070726F626C656D207265
:10117000656164696E672066726F6D2053442063F9
:10118000617264206F7220696E76616C696420669A
:10119000696C656E616D650070726F626C656D2063
:1011A00077726974696E6720746F2053442063619D
:1011B0007264206F7220696E76616C696420666962
:1011C0006C656E616D650020730A00206D730A0006
:1011D0000A54696D653A2000202E20001817240F4C
:1011E0000106070526271E1D1F201B0E6F63746155
:1011F0007665206F7574206F662072616E6765007A
:10120000EFE2D5C9BEB3A9A0978E867F696C6C65E5
:1012100067616C20706C61636500696E646578203D
:10122000746F206E7468206973206F7574206F6608
:101230002072616E6765007365636F6E6420617212
:1012400067756D656E7420746F206E7468206973A5
:10125000206E6F742061206C69737400696C6C651A
:1012600067616C2066756E6374696F6E00696C6C83
:101270006567616C2066756E6374696F6E2070615E
:1012800072616D6574657200696C6C6567616C2074
:101290006F7074696F6E616C20706172616D6574DE
:1012A000657200696E76616C69642064656661755B
:1012B0006C742076616C756500756E6B6E6F776E01
:1012C000207661726961626C6500656C656D656E42
:1012D00074206973206E6F742061206C69737400D0
:1012E000617267756D656E74206973206E6F74200E
:1012F00061206B6579776F7264006E6F7420612076
:1013000073747265616D00617267756D656E7420CE
:101310006973206E6F742061206368617261637409
:101320006572006E6F742074726163696E6700612C
:101330006C72656164792074726163696E672033D1
:101340002066756E6374696F6E7300616C7265619F
:101350006479206265696E672074726163656400F8
:1013600070726F626C656D206175746F72756E6EF0
:10137000696E672066726F6D2053442063617264EA
:101380000070726F626C656D206C6F6164696E676E
:101390002066726F6D205344206361726400707226
:1013A0006F626C656D206C6F6164696E6720667238
:1013B0006F6D2053442063617264206F7220696EE8
:1013C00076616C69642066696C656E616D6500703C
:1013D000726F626C656D20736176696E6720746FE1
:1013E00020534420636172640070726F626C656D9B
:1013F00020736176696E6720746F205344206361A7
:101400007264206F7220696E76616C69642066690F
:101410006C656E616D65006E6F20726F6F6D00752B
:101420006E6B6E6F776E2073747265616D20747968
:1014300070650063616E27742074616B652063645E
:10144000720063616E27742074616B652063617242
:1014500000696E646578206F7574206F6620726114
:101460006E6765006F6464206E756D626572206FD3
:101470006620617267756D656E747300696C6C656A
:1014800067616C20636C6175736500696E76616C71
:101490006964206B6579776F726400696E76616C40
:1014A000696420617267756D656E7400696E64654C
:1014B000782063616E2774206265206E65676174B1
:1014C000697665006469766973696F6E2062792058
:1014D0007A65726F0061726974686D657469632002
:1014E0006F766572666C6F77006D697373696E678E
:1014F0002073747265616D20617267756D656E74BD
:10150000006D697373696E6720617267756D656ED2
:101510007400746F6F2066657720617267756D6502
:101520006E747300746F6F206D616E7920617267E5
:10153000756D656E747300617267756D656E74208C
:101540006973206E6F7420612070726F70657220F5
:101550006C69737400617267756D656E7420697370
:10156000206E6F7420612073796D626F6C00617200
:1015700067756D656E74206973206E6F74206120CD
:101580006C69737400617267756D656E7420697340
:10159000206E6F74206120737472696E67006172CF
:1015A00067756D656E74206973206E6F7420616E4F
:1015B00020696E7465676572004572726F723A20B9
:1015C00000D415D015CC15C915736400737069006B
:1015D0006932630073657269616C0000000000008D
:1015E00000000B09000000000000000000000000E7
:1015F000000A0000000000000200000005040307CC
:1016000000010210204080200801040802010201AC
:101610000104088040041002080402800120201008
:10162000408040201001040406060606050502025B
:101630000202010505060404050407050606050562
:10164000040707040405020202020500000000234B
:1016500000000029002C002F0032000000000000D4
:10166000000000000000002200250000002B002EDA
:101670000031003400000000000000000000000005
:10168000002100240000002A002D0030003300005B
:101690000000000000000000000230129E4F745550
:1016A00011241FBECFEFD1E4DEBFCDBF13E0A0E019
:1016B000B2E0ECE8FEEB00E00BBF02C007900D9239
:1016C000AA31B107D9F722E3AAE1B3E001C01D9224
:1016D000A239B207E1F71BE0C0E5DBE004C02197C7
:1016E000FE010E94EE5BCD34D107C9F70E948E5AED
:1016F0000C94445F0C940000DC01ED91FC91048497
:10170000F585E02D09959095991F9927991F892FA7
:1017100090E00895089521E030E0FC01828D823050
:1017200011F030E020E0C90108950DB407FEFDCFAF
:10173000089560E0FC0181810C94B35461E0FC01E8
:1017400081810C94B354CF93DF93EC0161E08981E4
:101750000E94B35460E08981DF91CF910C94B3541F
:101760001EBC0E94950B8EB50895EF92FF920F93C9
:101770001F93CF93DF938C01EB0185E0F82EC80116
:101780000E94990BFEBC0E94950BC8010E94B00BF1
:10179000E82EC8010E949E0BE0FE12C02A976AE064
:1017A00070E080E090E00E947C521C161D063CF325
:1017B00080E0DF91CF911F910F91FF90EF900895FE
:1017C00081E0F7CF0F931F93CF93DF93142F052F53
:1017D000C62F660FDD0BCE0124E0959587952A95DF
:1017E000E1F78EBD0E94950B34E0CC0FDD1F3A95DA
:1017F000E1F7C02BCEBD0E94950B1EBD0E94950B3C
:10180000DF91CF911F910F910C94950BFC01462F06
:10181000218532855DE0529FC001539F900D1124B8
:10182000262F30E021593F4F820F931F68E373E169
:101830000E94855B928781876EE770E00E94855BDE
:101840008068841708F08F5F0895EF92FF920F93DE
:101850001F93CF93DF9367FD3EC0411530E15307DF
:10186000D0F5022F7A01162FEC0168EE73E00E948A
:10187000B50B882391F1CE010E94990B81E08EBDBA
:101880000E94950B1EBC0E94950BCE010E94A30BDB
:1018900086E08EBD0E94950BCE010E94A30B82E0D4
:1018A0008EBD0E94950BA701612FCE010E94E20B15
:1018B0000EBD0E94950BCE010E949E0B64E170E06C
:1018C000CE010E94B50B81E0DF91CF911F910F9166
:1018D000FF90EF9008958FEFF7CF80E0F5CF1F9343
:1018E000CF93DF93C62FD22F132F242F49E050E040
:1018F0008AE193E00E94250C212F4AE050E06C2FF2
:101900008AE193E00E94250C2D2F4BE050E06C2FD4
:101910008AE193E0DF91CF911F910C94250CEF9217
:10192000FF921F93CF93DF9367FD25C0411520E100
:10193000520708F57A01162FEC0164E670E00E9468
:10194000B50BCE010E94990B83E08EBD0E94950BD2
:10195000A701612FCE010E94E20BCE010E94B00BC5
:10196000182FCE010E949E0B812FDF91CF911F91E6
:10197000FF90EF9008951FEFF7CF0F931F93CF9332
:10198000DF93603238F000E0802FDF91CF911F911C
:101990000F910895162FEC0168EE73E00E94B50BCD
:1019A000082F882381F3CE010E94990B86E08EBD1B
:1019B0000E94950BCE010E94A30B80E28EBD0E9477
:1019C000950B50E040E0612FCE010E94E20BCE016A
:1019D0000E949E0B68EE73E0CE010E94B50BD4CF3F
:1019E000BF92CF92DF92EF92FF920F931F93CF930C
:1019F000DF93EC01162F50E040E08AE193E00E9473
:101A00008F0CB82E012F0068081329C041E050E068
:101A1000612F8AE193E00E948F0C42E050E0612F39
:101A20008AE193E00E948F0CC82E43E050E0612FC2
:101A30008AE193E00E948F0CD12CDC2CCC240D2C5D
:101A4000000CEE08FF08C82A8FEFC816D806E80673
:101A5000F10428F48FEFC81AD80AE80AF80A8FEFC1
:101A6000B81204C0C12CD12C7601C394612FCE01D1
:101A70000E94BD0C202F50E040E0612F8AE193E0EE
:101A80000E94250C97014427552741E050E0612F23
:101A90008AE193E00E94250C55274F2D3E2D2D2DD8
:101AA00042E050E0612F8AE193E00E94250C2C2D4A
:101AB00043E050E0612F8AE193E0DF91CF911F91E5
:101AC0000F91FF90EF90DF90CF90BF900C94250C7A
:101AD000FC011382128288EE93E0A0E0B0E08483E0
:101AE0009583A683B7838BED92E0918380831486E0
:101AF000128E0895CF92DF92EF92FF920F931F9371
:101B0000CF93DF93EC01162F042F1B821A8288EEED
:101B100093E0A0E0B0E08C839D83AE83BF838BED28
:101B200092E0998388836E018CE0C80ED11C8CE012
:101B3000E82EF12C433081F44A8F8FEF8E8F84E6AC
:101B400090E098A38F8FDF91CF911F910F91FF901D
:101B5000EF90DF90CF900895A701612F8AE193E085
:101B60000E948F0CF60181936F01FFEFEF1AFF0ABD
:101B700088E1E816F10481F7188E8FE78B8F8EEFDE
:101B80008C8F1D8E013031F40A8F198F1E8F8AE1E0
:101B900090E0D7CF198F1E8F49E050E0612F8AE186
:101BA00093E00E948F0C182F87FFF5CF6E8D898DE3
:101BB00068133CC08AE190E098A38F8F48E050E022
:101BC0008AE193E00E948F0C8B8F682F8AE193E06B
:101BD0000E94060C8C8F1AA219A24F8D58A16E8DEF
:101BE0008AE193E00E948F0C8F3FD1F44F8D58A172
:101BF0004F5F5F4F6E8D8AE193E00E948F0C8F3FA5
:101C0000C1F04F8D58A14F5F5F4F6E8D8AE193E019
:101C10000E948F0C8B8F8F8D98A1019698A38F8F28
:101C20008F8D98A1019698A38F8FD7CF8CE090E0ED
:101C3000C3CF82E08A8F87CFFF920F931F93CF93FA
:101C4000DF93EC010CE010E06E8D6F3F49F41A8ECB
:101C50008FEF9FEFDF91CF911F910F91FF9008952C
:101C60004F8D58A18AE193E00E948F0C4F8D58A1AF
:101C70004F5F5F4F58A34F8FFB8CF81641F18F3F9A
:101C800021F56E8D8AE193E00E948F0C8B8F2F8D52
:101C900038A12F5F3F4F38A32F8F8F3FA9F449E022
:101CA00050E06E8D8AE193E00E948F0C8E8F8F3F03
:101CB00071F248E050E0682F8AE193E00E948F0CB7
:101CC0008B8F18A30F8FC0CF8F2D90E0C3CF8FEFD6
:101CD00090E0C0CF1F93CF93DF93EC011A8D8FEF6D
:101CE0009FEF113029F48D8D882331F08C8D90E099
:101CF000DF91CF911F910895CE010E941C0E1816FE
:101D00001906B4F78C8F1D8FF3CFAF92BF92CF928D
:101D1000DF92EF92FF921F93CF93DF93D62F3AE19A
:101D2000A32EB12CC12CD12C760149E050E06D2FAF
:101D30008AE193E00E948F0C182F87FD29C04AE0AA
:101D400050E06D2F8AE193E00E948F0CC82F4BE08A
:101D500050E06D2F8AE193E00E948F0C2C2F30E031
:101D6000322F2227820F932F911D092E000CAA0BD0
:101D7000BB0BC80ED91EEA1EFB1E2CE0A22EB12CF6
:101D8000D12FD3CF8FEFC81AD80AE80AF80A5A0120
:101D9000A5016D2F8AE193E00E948F0CA5014F5F92
:101DA0005F4F8F3F79F76D2F8AE193E00E948F0C90
:101DB0008F3F21F0A5014E5F5F4FE4CFC701B60111
:101DC000DF91CF911F91FF90EF90DF90CF90BF9068
:101DD000AF9008958F929F92AF92BF92CF92DF9271
:101DE000EF92FF921F93CF93DF93EC018A8D8330A4
:101DF00009F0C2C08F8D98A1CD97ACF06E8D6F5F4A
:101E00006E8F613228F080E28E8F8FEF9FEFA1C03E
:101E100047E050E08AE193E00E948F0C9E8D891389
:101E2000EDCF18A21F8E4F8D58A144315105BCF43F
:101E3000445F5F4F6E8D8AE193E00E948F0C2F8D7F
:101E400038A1882319F02C30310534F02C5E3F4F37
:101E500038A32F8F90E07DC02F5F3F4FF9CF4832DE
:101E600051050CF068C04F5F5F4F58A34F8F483249
:101E7000510509F05DC06E8D8AE193E00E94850EE8
:101E80004B015C0120EA36E841E050E00E94CF5B64
:101E90008AE0C82ED12CE12CF12CCA01B901A7018E
:101EA00096010E94CF5B605D6C87C501B40120E1A3
:101EB00037E240E050E00E94CF5BCA01B901A701C0
:101EC00096010E94CF5B605D6D87C501B40128EE6D
:101ED00033E040E050E00E94CF5BCA01B901A701A6
:101EE00096010E94CF5B605D6E87C501B40124E658
:101EF00030E040E050E00E94CF5BCA01B901A70189
:101F000096010E94CF5B605D6F87C501B401A70198
:101F100096010E94CF5B162FCA01B901A701960155
:101F20000E94CF5B605D688B105D198B82E68A8BA7
:101F300080E290E00EC04E325105BCF4CA01019619
:101F400098A38F8FC40FD51F6C978881082E000C23
:101F5000990BDF91CF911F91FF90EF90DF90CF9081
:101F6000BF90AF909F908F9008958DE390E098A3DD
:101F70008F8F8AE090E0EDCF813009F046CF8D8DD4
:101F8000882319F01D8E8C8D65CFCE01DF91CF9106
:101F90001F91FF90EF90DF90CF90BF90AF909F90F8
:101FA0008F900C941C0ECF93DF93EC01E881F981A4
:101FB0000680F781E02D09951A8EDF91CF91089563
:101FC000603270F4FC0183819481A581B68104C0E4
:101FD000B695A795979587956A95D2F781700895DC
:101FE00080E008951F93CF93DF93EC01162F0E949A
:101FF000E00F982F882351F047E050E0612FCE0189
:102000000E948F0C91E08F3F09F090E0892FDF91C3
:10201000CF911F910895FF920F931F93CF93DF935A
:102020008C01D62FF42EFC01C0816C2FC8010E94B8
:10203000F20F8823D9F0D7FDDC2F2D2F47E050E099
:102040006C2F8AE193E00E94250C2F2D48E050E090
:102050006C2F8AE193E00E94250CF801C0838C2F3D
:10206000DF91CF911F910F91FF900895CF5FCF71B6
:10207000F8018081082E000C990BC8171906A9F6E3
:10208000CFEFEDCFDF92EF92FF920F931F93CF939D
:10209000DF93EC017B011B821A8288EE93E0A0E0C3
:1020A000B0E08C839D83AE83BF838BED92E09983F8
:1020B00088838FE78B8F8EEF8C8F4FE76FEF8AE1EE
:1020C00093E00E940B10D82E898F87FF09C01A8ECB
:1020D000DF91CF911F910F91FF90EF90DF900895C6
:1020E0001D8E82E08A8FDE8E8AE190E098A38F8F2A
:1020F00087012C968CE0E82EF12CF80121918F01BC
:10210000A7016D2D8AE193E00E94250CF80131971B
:1021100080818993FFEFEF1AFF0A88E1E816F10446
:1021200061F7D6CF0F931F93CF93DF93EC01162F58
:102130004B8D8F8D98A146131EC08F3F9F40F4F4A6
:102140008B8D1F3F09F44DC0181331C04F8D58A11E
:10215000CA01019698A38F8F2FEF6E8D8AE193E0CD
:102160000E94250C1C8D1B8F612F8AE193E00E9439
:10217000060C8C8F1FC08115904114F3698D8AE184
:1021800093E00E940B10082F80E007FD25C029A1D5
:102190003AA1402F6E8D8AE193E00E946F0C1AA243
:1021A00019A20E8F8CE090E098A38F8FC9CF8C8DF1
:1021B0008117D1F24F8D58A1CA01019698A38F8F34
:1021C000212F6E8D8AE193E00E94250C89A19AA1AE
:1021D00001969AA389A381E0DF91CF911F910F917E
:1021E0000895182FE7CFFC01228D223031F40E9490
:1021F0009210082E000C990B089590E080E008954D
:10220000EF92FF920F931F93CF93DF938C01FC010A
:10221000618313821482158216821082D0E0C0E09E
:10222000EE24E394F12C50E040E06C2F8AE193E03F
:102230000E948F0CC7010C2E02C0880F991F0A94B0
:10224000E2F7092E000CAA0BBB0BF8014381548165
:1022500065817681842B952BA62BB72B8383948362
:10226000A583B6832196C032D105E9F681E0DF91DE
:10227000CF911F910F91FF90EF9008950F931F93AF
:10228000CF93DF938C01D62FC62F67FF1AC01F9202
:102290006F9388EB92E09F938F93809191328F930D
:1022A000809190328F930E948D5C0F900F900F90D1
:1022B0000F900F900F9080E0DF91CF911F910F91C1
:1022C0000895CF5FCF7147E050E06C2FC8010E94A6
:1022D0008F0C8D1304C06C2FC8010E94F00CDC130E
:1022E000F0CF81E0E9CFBF92CF92DF92EF92FF92E1
:1022F0000F931F93CF93DF936B01D0E0C0E00C2FBF
:10230000BC2E6C2F8AE193E00E94E00F882399F1A4
:1023100047E050E06C2F8AE193E00E948F0C8C170D
:102320001D0649F510E0E12E012E000CFF08A70163
:10233000445F5F4F6B2D8AE193E00E948F0CF601A2
:10234000EE0DFF1D9081292F092E000C330B8217F3
:10235000130669F491110CC0802FDF91CF911F916A
:102360000F91FF90EF90DF90CF90BF9008951DE008
:102370001F5F1C30C0F22196C032D10509F0BFCFDB
:102380000FEFEACFCF92DF92EF92FF920F931F935E
:10239000CF93DF93EC016B017A01122F022F0E71A4
:1023A000FA01818181112AC080818E52823030F5FC
:1023B000002369F0CE010E94680DCE01DF91CF911C
:1023C0001F910F91FF90EF90DF90CF9008951B82A7
:1023D0001A8288EE93E0A0E0B0E08C839D83AE8308
:1023E000BF838BED92E09983888383E08A8F8FEFA0
:1023F0008E8F84E690E098A38F8FDFCFB701C60160
:102400000E947311682F011107C041E087FDD2CFF0
:10241000CE010E947A0DD1CF87FD0AC013FF02C002
:1024200042E0F6CF14FFC6CFC6010E943E111460F1
:1024300012FFC0CFB701CE010E944210BECFCF9392
:10244000DF93EC010E94731187FD06C0682FCE0157
:10245000DF91CF910C943E1180E0DF91CF910895F0
:10246000EAE1F3E08FEF808381E181830895209199
:10247000250330E082179307ACF06091000270E012
:10248000A901460F571F8417950764F4821B930B0D
:102490004091260350912703840F951F0E94995B5A
:1024A000820F931F08951816190644F4EFE9FFE010
:1024B0003197F1F700C000000197F5CF0895982FEC
:1024C000FB01DA018770907F903D29F128F4903A62
:1024D00041F0903BA1F00895903E49F1903F99F171
:1024E0000895232B49F424E330E02D933C9323E318
:1024F00030E031832083089522E330E0F6CF232BB0
:1025000039F425E230E02D933C9324E230E0F1CF22
:1025100023E230E0F8CF232B39F42BE230E02D9387
:102520003C932AE230E0E5CF29E230E0F8CF232BDC
:1025300039F42EE230E02D933C932DE230E0D9CFF8
:102540002CE230E0F8CF232B39F421E330E02D9357
:102550003C9320E330E0CDCF2FE230E0F8CF1F9363
:10256000CF93DF9300D000D0CDB7DEB7162F30E089
:1025700020E0AE014D5F5F4FBE016F5F7F4F0E9455
:102580005F121130A9F150F01230C1F00F900F908E
:102590000F900F90DF91CF911F910895E981FA81FB
:1025A000408121E030E0B90102C0660F771F8A95B3
:1025B000E2F7CB01809584238083E8CFE981FA811B
:1025C000408121E030E0B90102C0660F771F8A9593
:1025D000E2F7CB01942F982B9083EB81FC819081C3
:1025E000982B9083E981FA81908180958923E4CFAB
:1025F000E981FA81908121E030E001C0220F8A95C3
:10260000EAF7892F822BD8CF1F93CF93DF9300D087
:1026100000D0CDB7DEB7162F30E020E0AE014D5F21
:102620005F4FBE016F5F7F4F0E945F12EB81FC81A5
:10263000111115C0408121E030E0B90102C0660FE0
:10264000771F8A95E2F7CB018095842380830F90D2
:102650000F900F900F90DF91CF911F91089590816F
:1026600021E030E001C0220F8A95EAF7892F822B02
:10267000EDCFCF93DF9300D000D0CDB7DEB721E010
:1026800030E0AE014D5F5F4FBE016F5F7F4F0E9434
:102690005F12EB81FC81208130E0A90102C05595D9
:1026A00047958A95E2F7CA0181700F900F900F90BD
:1026B0000F90DF91CF9108951F920F920FB60F9256
:1026C00011248F9383B78E7F83BF8F910F900FBE9E
:1026D0000F901F90189561E080EB0E94041361E059
:1026E00080EB0E94AF1281E58CBD8DB58EB561E0A7
:1026F00081EB0E94AF1261E082EB0C94AF12CF939A
:10270000DF931F92CDB7DEB7898389818EBD0DB46B
:1027100007FEFDCF8EB50F90DF91CF9108951F93E7
:10272000CF93DF93182FC0912A0360E08C2F0E9473
:102730000413D091290360E08D2F0E940413812F90
:102740000E947F1361E08D2F0E94041361E08C2FA3
:10275000DF91CF911F910C940413CF92DF92EF92EF
:10276000FF921F93CF93DF937C016B0110912A039B
:1027700060E0812F0E940413E701CE018E199F09AA
:102780008C159D0524F489910E947F13F6CF61E09A
:10279000812FDF91CF911F91FF90EF90DF90CF902D
:1027A0000C940413CF92DF92EF92FF920F931F933A
:1027B000CF93DF9300D000D0CDB7DEB78C01E62EEB
:1027C0006A01F22E8AE20E948F13198223E030E020
:1027D000C801B9010E94995B6A831B82C8018C0DF4
:1027E0009D1D0197B9010E94995B6C8364E070E0C4
:1027F000CE0101960E94AD138BE20E948F131982C5
:10280000EA821B82FA94FE0CFC8264E070E0CE0146
:1028100001960E94AD138CE20E948F130F900F90CF
:102820000F900F90DF91CF911F910F91FF90EF903C
:10283000DF90CF900895EF92FF920F931F93CF9365
:10284000DF9300D000D0CDB7DEB780E6E82E86E07B
:10285000F82EC7010196F7010491033669F4F2E0FE
:10286000EF0EF11CFC011491112399F381E090E02B
:102870000E9453121150F8CF0023C1F0F2E0EF0E86
:10288000F11CFC0184910E948F13015011F310E0A0
:10289000A801B701CE0101960E94615CE00EF11E15
:1028A000B801CE0101960E94AD13D3CF0F900F90C7
:1028B0000F900F90DF91CF911F910F91FF90EF90AC
:1028C00008958038E1E09E0764F4603A71054CF4A5
:1028D0004138E1E05E072CF4213A310514F40C9400
:1028E000D2130895CF92DF92EF92FF920F931F932E
:1028F000CF93DF9300D01F92CDB7DEB79C01260F98
:10290000371F240F351F203A3105B9F46A018B01B6
:102910007C0183E30E948F13E9820A83CB8263E008
:1029200070E0CE0101960E94AD13E0922503009362
:10293000000210922703109226030F900F900F9021
:10294000DF91CF911F910F91FF90EF90DF90CF908B
:1029500008950F931F93CF93DF931F92CDB7DEB7E8
:102960002091260330912703820F931F609100026C
:1029700070E00E94995B182F092F80932603909393
:10298000270387E30E948F13198361E070E0CE0173
:1029900001960E94AD13812F902F0F90DF91CF9160
:1029A0001F910F910895CF93DF931F92CDB7DEB79C
:1029B000109227031092260387E30E948F13198237
:1029C00061E070E0CE0101960E94AD130F90DF919F
:1029D000CF9108952F923F924F925F926F927F9284
:1029E0008F929F92AF92BF92CF92DF92EF92FF921F
:1029F0000F931F93CF93DF93CDB7DEB7C058D109A4
:102A00000FB6F894DEBF0FBECDBF4C01CB015A010B
:102A100069011E2D0E9437127C0180E888169104FE
:102A200008F098C0E0EAEE16F10408F093C0140133
:102A30002A0C3B1CF1E82F1631040CF08BC0270147
:102A40004C0C5D1C81EA481651040CF083C0350122
:102A5000660C771C6A0C7B1CC401880F991F880EBA
:102A6000991E112301F19601A301B701C4010E942F
:102A70006114F12CE12C10E007511D4FEC14FD0402
:102A80000CF068C0F801608170E0A501CE010196EC
:102A90000E94865CB501CE0101960E94AD13FFEF46
:102AA000EF1AFF0AEBCF21E030E0A301B701C40128
:102AB0000E946114E02FF0E0E751FD4F008110E02B
:102AC000A501B801CE0101960E94865CB501CE0138
:102AD00001960E94AD13B2016150710921E030E00E
:102AE000A301C4010E946114A501B801CE010196A1
:102AF0000E94865CB501CE0101960E94AD1396013D
:102B000043E050E0B701C4010E946114A601B8017E
:102B1000CE0101960E94865CB601CE0101960E940C
:102B2000AD1381E0281A3108C101880F991F960161
:102B300043E050E0B701820D931D0E946114A6018D
:102B4000B801CE0101960E94865CB601CE010196C5
:102B50000E94AD13C058DF4F0FB6F894DEBF0FBE12
:102B6000CDBFDF91CF911F910F91FF90EF90DF903C
:102B7000CF90BF90AF909F908F907F906F905F901D
:102B80004F903F902F9008952F923F924F925F92D7
:102B90006F927F928F929F92AF92BF92CF92DF926D
:102BA000EF92FF920F931F93CF93DF93CDB7DEB7D2
:102BB000CD56D1090FB6F894DEBF0FBECDBF4C0184
:102BC000CB011A0169010E943712A3969FAF8EAF05
:102BD000A397C7018430910514F083E090E003309F
:102BE00011050CF098C0702E102F1295110F110FB7
:102BF000107C000F000F000F87519D4FDC01AC903F
:102C0000F10101900020E9F7CF01019782199309A2
:102C10002C019601225031092230310508F037C1CC
:102C2000F3E0CF16D10409F47BC06CE0E62EF12C62
:102C300024E030E0A1963FAF2EAFA1978E9D90018A
:102C40008F9D300D9E9D300D1124280D391D21388A
:102C5000314054F080E891E088199909B7010E9449
:102C6000995B2B0177FD1FC2A196EEADFFADA19739
:102C700024E0EE0FFF1F2A95E1F7A796FFAFEEAF16
:102C8000A797C701049763E070E00E94855B6E5FC1
:102C90007F4F9B01220F331FA9963FAF2EAFA997FD
:102CA0006F963FAE2EAE6F97912F902B8A2D83702B
:102CB000982BAA969FAFAA978A2D8F71182BAB9647
:102CC0001FAFAB970729AC960FAFAC976F968EAD41
:102CD0009FAD6F9782199309841595055CF190E07B
:102CE00080E0C359DF4F0FB6F894DEBF0FBECDBFF3
:102CF000DF91CF911F910F91FF90EF90DF90CF90D8
:102D0000BF90AF909F908F907F906F905F904F900B
:102D10003F902F90089573E0772E0CE110EE6CCF6A
:102D20005FE0E52EF12CA5E0B0E0A196BFAFAEAF1D
:102D3000A19784CF6F96AEADBFAD6F978D916F9613
:102D4000BFAFAEAF6F978052990BB3E0CB16D104F3
:102D500009F06EC0BC0193E0660F771F9A95E1F70A
:102D6000605A7C4F48E050E0CE018B5A9F4F0E9442
:102D7000615CAE014F5F5F4F68E070E0BB24B394CD
:102D8000F7013697A596FFAFEEAFA5979A01A196EA
:102D90000EAD1FADA197040F151FAE961FAF0EAF5E
:102DA000AE97FE01EB5AFF4F90E080E0A596AEADE6
:102DB000BFADA5978A179B070CF047C010811B2158
:102DC000AA960FADAA97111101C00A2D11811B21DE
:102DD000D1F10C7F0729AB961FADAB9762806B20BA
:102DE00029F0107EAC966FACAC971629AE96AEADBE
:102DF000BFADAE970C93D9010C938630910549F085
:102E0000AE96AEADBFADAE9711961C93D90111969B
:102E10001C932E5F3F4F0396AE960EAD1FADAE973F
:102E20000E5F1F4FAE961FAF0EAFAE973396BECF5D
:102E300026E0289FB001299F700D1124605E7E4F0F
:102E400046E050E091CF1A2DC9CFBB0C61507109FB
:102E5000A9960EAD1FADA997400F511F61157105C1
:102E600009F094CF20E130E0A701A3966EAD7FADCD
:102E7000A397C4010E946114A7966EAD7FADA7977A
:102E8000CE0101960E94AD138E0C9F1C1FCFCD2842
:102E900009F07BC049E0489F9001499F300D112403
:102EA000280D391D213831405CF080E891E0881907
:102EB000990969E070E00E94995B2B0177FDF3C0EE
:102EC0007101BB24B3948A2D8F71182BC70182190D
:102ED0009309841595050CF002CFD7016D917D0102
:102EE0006052770B83E0660F771F8A95E1F7605A8F
:102EF0007C4F48E050E0CE018B5A9F4F0E94615CAE
:102F000030E020E0CE0101966C017B2D022E01C045
:102F1000770F0A94EAF7FE01EB5AFF4FDC0150E00D
:102F200040E06081672379F1612F6180672211F0B1
:102F3000637E602B4630510529F06280672211F0D4
:102F40006C7F67296D934D5F5F4F33964930510514
:102F500041F703962F5F3F4F28303105B1F628E047
:102F600030E049E050E0A3966EAD7FADA397C40179
:102F70000E946114B9E08B0E911C68E170E0C601FB
:102F80000E94AD13A3CF6A2DD0CF46E0489F900199
:102F9000499F300D1124280D391D213831405CF036
:102FA00080E891E08819990966E070E00E94995BD9
:102FB0002B0177FD78C061018A2D8F71182BC60116
:102FC00082199309841595050CF089CED6018D914F
:102FD0006D018052990BB6E0B89FB001B99F700D9A
:102FE0001124605E7E4F46E050E0CE018B5A9F4F29
:102FF0000E94615C66967FAD669767966FAD679736
:1030000068969FAD68976996AFAD69976A96BFADB0
:103010006A976B966FAC6B97FE01319650E040E07B
:103020007F0121E030E0042E01C0220F0A94EAF76C
:10303000872F8223A1F1812FB62EB22211F0837E39
:10304000802BB92EB22211F08C7F872980838A2FA2
:10305000822339F1812FBB2EB22211F0837E802B87
:10306000262111F08C7F8729818332964F5F5F4F35
:1030700048305105B1F628E030E046E050E0A39634
:103080006EAD7FADA397C4010E946114E6E08E0E81
:10309000911C60E170E0C7010E94AD1390CF8A2DB2
:1030A000CBCF8A2DD8CF8FEF9FEF1BCEEF92FF9221
:1030B0000F931F93CF93DF93CDB7DEB7C058D109DD
:1030C0000FB6F894DEBF0FBECDBFE82E28E830E083
:1030D00040E851E070E060E090E080E00E94D213B0
:1030E00008E810E0F12C40E850E0B701CE0101966D
:1030F0000E94865C60E870E0CE0101960E94AD13EC
:103100000150110981F7C058DF4F0FB6F894DEBFA8
:103110000FBECDBFDF91CF911F910F91FF90EF9028
:1031200008951F93CF93DF93D82F162FC42F80932A
:103130002A0360932903409328030E946B1361E0E4
:103140008D2F0E94AF1261E083ED0E94AF1261E00B
:103150008D2F0E94041361E0812F0E94AF1261E065
:103160008C2F0E94AF1261E08C2F0E94041382E327
:1031700090E00E94531260E0809128030E940413A3
:1031800085E090E00E94531261E0809128030E9444
:10319000041386E990E00E9453120E941B1480E001
:1031A0000E94561890E080E0DF91CF911F91089522
:1031B00080E00E94561888E20E948F1380E10C94F0
:1031C0008F130E94D81882E08093390110927A0000
:1031D00052985A9AEA98E9E6F0E080818F7E8083DF
:1031E000808180628083E29AEA9A789483B7817FB3
:1031F000846083BF83B7816083BF88950C941B1460
:103200008F929F92AF92BF92CF92DF92EF92FF92F6
:103210001F93CF93DF93C7EFD2E062E089910E94C2
:10322000AF1282E0CD3FD807C1F78AE0E5E3F3E0D3
:10323000ABE2B3E001900D928A95E1F7C5E3D3E0EC
:103240009DEEC92E92E0D92E88248394912C188269
:10325000F60111916F0161E0812F0E94AF1260E0D1
:10326000812F0E94041387EFA82E82E0B82EF12C44
:10327000E12CF50181915F010E943913811109C090
:10328000888194010E2C01C0220F0A94EAF7822B48
:103290008883FFEFEF1AFF0A86E0E816F10449F78A
:1032A00061E0812F0E94041360E0812F0E94AF1221
:1032B0002196E7EFCE16E2E0DE0649F6DF91CF91E8
:1032C0001F91FF90EF90DF90CF90BF90AF909F90B5
:1032D0008F900895EF92FF920F931F93CF93DF93F8
:1032E0000E94001970913503172F18707071C5E393
:1032F000D3E0ABE2B3E030E020E080E00AE0F99018
:1033000050E040E061E0E22E9F2D962396131DC011
:103310009C919623D1F4E11004C09DEF940F92305C
:10332000A0F08DE392E0111106C081E092E07111EE
:1033300002C089E792E0049FF001059FF00D11247F
:10334000E80FF91FE20FF31F8081660F4F5F5F4F99
:1033500046305105C9F62F5F3F4F11962A3031058F
:1033600071F6DF91CF911F910F91FF90EF9008952B
:1033700082ED0E94391391E0811190E0892F089528
:1033800080912A0590912B05009729F00197909341
:103390002B0580932A0580912A0590912B05892B76
:1033A00059F084EC8093BC008091BC0087FFFCCF77
:1033B0008091BB0090E0089584E8F4CF8093BB0037
:1033C00084E88093BC008091BC0087FFFCCF909183
:1033D000B900987F81E0983209F080E008958EBDB1
:1033E00000000DB407FEFDCF8EB508958A3029F494
:1033F000809113058F5F80931305809113058F5F74
:1034000080931305089590E080E00895FC01808189
:103410009181892B29F480910C0590910D050895D7
:1034200090E080E00895DC01ED91FC91309721F06F
:1034300080819181029729F480910C0590910D056E
:10344000089590E080E00895FC01808191810097CB
:1034500061F0FC0180819181089729F480910C052D
:1034600090910D05089590E080E008950895DC01A5
:10347000ED91FC91309749F080819181069729F474
:1034800080910C0590910D05089590E080E00895DD
:10349000DC01ED91FC91309749F0808191810A9790
:1034A00029F480910C0590910D05089590E080E03D
:1034B0000895DC01ED91FC91309749F08081918174
:1034C0000C9729F480910C0590910D05089590E0DA
:1034D00080E00895CB010895FC01808191810895D9
:1034E00080911105882331F010921105082E000CEF
:1034F000990B0895E0911405F0911505CF010196FF
:103500009093150580931405E552FA4E849181112C
:10351000EDCF8FEF9FEF08951EBC00000DB407FEA6
:10352000FDCF8EB590E0089580912E0590912F05E6
:10353000E4EBF1E330E020E05E2F4F2F11821082A8
:103540003283238334979A0145E0E434F407A1F7EA
:1035500028E435E030932D0520932C05845E944FAC
:1035600090932F0580932E050895CF93DF93FC0150
:10357000A281B381FB01EF012081109731F481E03A
:10358000211180E0DF91CF9108952223D1F332966B
:103590008981082E000C990B922B12962D913C914B
:1035A00013972817390769F70D90BC91A02DE3CF29
:1035B000CF93DF93EC01209759F18881998180FDA9
:1035C00027C09C012160398328839C012150310947
:1035D0002D30310530F00E94D81A0A80DB81C02DD1
:1035E000EACF8C30910541F0029791F48A819B815A
:1035F00083709927892B61F4EA81FB81309741F030
:10360000808191819C01216031832083FC01F6CF70
:10361000DF91CF910895E4EBF1E330E020E050E05A
:1036200040E08081918180FD16C01182108252831A
:1036300043832F5F3F4F5E2F4F2F349785E0E43455
:10364000F80779F750932C0540932D0530932F05FB
:1036500020932E0508958E7F91838083EECF0F9364
:103660001F93CF93DF938C01EB0180910C05909118
:103670000D050E94D81A80911C0590911D050E948D
:10368000D81A80911A0590911B050E94D81AC8017A
:103690000E94D81ACE010E94D81ADF91CF911F91B3
:1036A0000F910C940B1BCF92DF92EF92FF920F932E
:1036B0001F93CF93DF93A8E4B5E0FD016C016894FC
:1036C000C0F88B0101602081318120FF1FC0A9015A
:1036D0004E7F7A01C1E0EC1AF108CBE0EC16F10460
:1036E00048F44230510591F442815381437055278B
:1036F000452B61F4C216D30611F411830083228195
:1037000033812817390711F473836283349621E3D8
:10371000E83BF207C1F62D913C91119720FF21C0A3
:103720002E7F2C30310559F022303105D1F412961C
:103730002D913C91139723703327232B91F41296EC
:10374000ED91FC911397309761F022813381261718
:10375000370711F4938382830190F081E02DEE7F8F
:10376000F2CF1496C1E3A83BBC07A9F6DF91CF9135
:103770001F910F91FF90EF90DF90CF900895EF92FF
:10378000FF920F931F93CF93DF937C0180910C05E1
:1037900090910D050E94D81A80911C0590911D05ED
:1037A0000E94D81A80911A0590911B050E94D81A80
:1037B000C8E4D5E0888180FF02C02496FBCF04EBEB
:1037C00011E3C017D107D0F5F8018081918180FF06
:1037D00032C088839983828193819B838A8380818D
:1037E00091818E7F91838083BE01C8010E94531B0B
:1037F00080911C0590911D058017910721F4D093AD
:103800001D05C0931C0580911A0590911B0580171A
:10381000910721F4D0931B05C0931A05F70180810D
:1038200091818017910711F4D183C083888180FF33
:1038300002C02496FBCF04501109C3CF0E940B1B7A
:10384000CE01885495409595879595958795DF91FC
:10385000CF911F910F91FF90EF900895CF93DF9339
:10386000FC01DB0112968D919C91139793838283C7
:1038700014964D915D916D917C911797448355837A
:103880006683778318964D915D916D917C911B971E
:103890004087518762877387BF01645F7F4FCD0187
:1038A0000C969F01275E3F4FEC014991CE01EB0141
:1038B0004993BE01C217D307B9F759968C9159970E
:1038C000818F5A968C915A97828F5B968C915B97D9
:1038D000838F5C968C915C97848F5D968C915D97BD
:1038E000858F5E968C915E97868F5F968D919C9169
:1038F000909790A3878F91968D919C9192A381A38D
:10390000CF01DF91CF9108952091240530912505B5
:103910008217930791F02091260530912705821791
:10392000930771F02091280530912905821793079C
:1039300051F482E090E00196089590E080E0FBCFA2
:1039400081E090E0F8CF90E080E00895009749F0A2
:10395000FC01208131812150310981E02D30310578
:1039600008F480E00895FC01808191810E94A61CEA
:10397000811105C080910C0590910D05089590E08E
:1039800080E00895FC01808191810E94A61C88231B
:1039900029F080910C0590910D05089590E080E04C
:1039A0000895009759F0FC0120813181215031099F
:1039B00081E02D30310518F480E0089581E008950C
:1039C000FC01808191810E94D11C882329F0809183
:1039D0000C0590910D05089590E080E008950F93F7
:1039E0001F93CF93DF9300D0CDB7DEB78C018091CA
:1039F0000E0590910F05892B31F481E090E09093B2
:103A00000F0580930E0520910E0530910F05C90119
:103A10009695879520FD21C090930F0580930E0504
:103A200080910E0590910F05892B49F44AE050E0F2
:103A3000BE016F5F7F4F85EC91E30E9478568091C5
:103A40000E0590910F05B8010E94855B0F900F90B5
:103A5000DF91CF911F910F91089525E9822722EDE3
:103A60009227DACFAC01092E000C660B770B56506B
:103A70006F4F7F4F2EE075956795579547952A951F
:103A8000D1F7437055279650880F991F880F991FBB
:103A9000842B952B0895882399F090ED980F9A30F8
:103AA00010F48F5208958D3269F08A3269F08432B1
:103AB00069F080629FE9980F9A3150F48655089515
:103AC00080E0089585E2089586E2089587E20895EA
:103AD0008FEF08959FEF980F993010F4815D08954E
:103AE00095EF980F9A3110F48A5A0895853231F083
:103AF000863231F0873231F080E008958DE208950A
:103B00008AE2089584E208950F931F93CF93DF9381
:103B10008C01FC0180810E944B1DD82FF80181810E
:103B20000E944B1DC82FF80182810E944B1D98E214
:103B30002C2FCC0F330BD902200D311D1124929F55
:103B4000A001939F500D11249A01280F311D87FD6C
:103B50003A95C901DF91CF911F910F910895CF93AD
:103B6000DF93EC0188810E944B1D8B307CF08981B2
:103B70000E944B1D87FD0AC08A810E944B1D8095C3
:103B8000881F8827881FDF91CF91089580E0FBCFA1
:103B900090ED980F9A3010F4892F089580629FE974
:103BA000980F963010F48755089580E10895CF93CB
:103BB000DF93EC01892B69F088819981029749F4A0
:103BC000CB010E94321D21E04A815B8148175907D1
:103BD00009F020E0822F90E0DF91CF910895FC0161
:103BE000892B11F1808191810297F1F42381522F69
:103BF0005295550F550F507C3281432F469546956F
:103C0000852F842B3295330F330F307C26952695E4
:103C1000932F922B9C012B5A3A4F81E090E0233056
:103C2000310520F080E0089580E090E00895FB01E8
:103C30008617970789F1009791F1309781F1DC01A0
:103C400012964D915C91139722813381421753074D
:103C500031F58D919C918230910549F481E090E09D
:103C6000208131812230310561F080E00895863075
:103C7000910541F481E090E02081318126303105C9
:103C8000A1F708950A9759F481E090E020813181ED
:103C90002A30310551F7F5CF81E090E0F2CF80E096
:103CA000FCCFDC011296ED91FC911397608171813C
:103CB0008D919C910E94171E892B29F080910C05F3
:103CC00090910D05089590E080E00895CF92DF92E5
:103CD000EF92FF920F931F93CF93DF937C016B01C1
:103CE000FB01C081D18110E000E0209791F0E881D4
:103CF000F98160817181C7010E94171E3A812B8171
:103D0000892B89F00115110591F4F6013083218387
:103D1000E701CE01DF91CF911F910F91FF90EF90BE
:103D2000DF90CF9008958E01C32FD22FDECFF80100
:103D300032832383EDCFFF920F931F93CF93DF93B3
:103D4000F82ED62F8A01C0E0CF1529F08D2FF8016B
:103D50000995CF5FF9CFDF91CF911F910F91FF9020
:103D60000895DC011296ED91FC9190E080E030978F
:103D700069F042815381252F30E0232B09F0019611
:103D8000411101960190F081E02DF1CF0895DC0101
:103D90001296ED91FC919B013595279590E080E07E
:103DA000821793073CF43097C1F00190F081E02D29
:103DB0000196F6CF309789F06095709561707727FE
:103DC00083E0660F771F8A95E1F78281938102C0B5
:103DD000959587956A95E2F7089580E00895CF92CA
:103DE000DF92EF92FF920F931F93CF93DF936C01BB
:103DF0008B017B01D0E0C0E0BE01C6010E94C71E5E
:103E0000882339F02196F70181937F01C431D105D0
:103E100099F7C00FD11F1882C801DF91CF911F9170
:103E20000F91FF90EF90DF90CF9008958091110552
:103E3000882331F010921105082E000C990B08957B
:103E40006091140570911505CB01019690931505AD
:103E50008093140580911805909119050E94C71E42
:103E60008111EACF8AE090E008956115710589F02B
:103E7000DB01ED91FC91309741F0A081B181129668
:103E80002D913C912817390731F0FB016281738134
:103E9000ECCFF0E0E0E0CF010895CF93DF93FC0199
:103EA000C281D381CE010E94351F21E0892B59F4B4
:103EB00060911C0570911D05CE010E94351F21E007
:103EC000892B09F420E0822FDF91CF910895109281
:103ED000B9009CE09093B800882341F061E081E054
:103EE0000E94B35461E080E00C94B354089594EAC6
:103EF0009093BC009091BC0097FFFCCF9091B900CB
:103F0000987F983029F09091B900987F903199F47A
:103F1000880F682B6093BB0084E88093BC0080917D
:103F2000BC0087FFFCCF9091B900987F81E060FFD3
:103F300004C0903421F080E002C09831E1F7089588
:103F400084E98093BC008091BC0084FDFCCF08957F
:103F50001F920F920FB60F9211240BB60F928F93F0
:103F6000EF93FF93E0E6F0E0808180648083FF912F
:103F7000EF918F910F900BBE0F900FBE0F901F907F
:103F8000189583B7817F846083BF0895CF93DF93B3
:103F9000EC0188E18093600086E48093600064E631
:103FA00070E080E090E00E947C5280917A008F77F0
:103FB00080937A001C161D0634F483B7816083BF9A
:103FC00088952197F7CF88E1809360001092600078
:103FD00080917A00806880937A00DF91CF91089574
:103FE000CF93DF93EC010E94A61C8823B9F0E881EF
:103FF000F981309791F0828193818F32984E69F4E4
:104000000A80DB81C02DCE010E94A61C882331F0DE
:1040100081E02A813B81232B09F080E0DF91CF9161
:104020000895EF92FF920F931F93CF93DF937C013C
:1040300005E918E0D0E0C0E0F80165917491C7018E
:104040000E946A5C892B41F021960B5F1F4FC43B95
:10405000D10591F7C4EBD0E0CE01DF91CF911F9154
:104060000F91FF90EF9008958F929F92AF92BF9221
:10407000CF92DF92FF920F931F93CF93DF936B0149
:10408000EC01209741F18A809B8008E010E0540108
:10409000002E02C0B594A7940A94E2F7FA2C8091FE
:1040A000B50280FF09C082E2A81619F0ECE5AE1255
:1040B00003C08CE5F6010995FF2019F08A2DF60161
:1040C000099508501109083FFFEF1F0701F70990F4
:1040D000D881C02DD6CFDF91CF911F910F91FF9046
:1040E000DF90CF90BF90AF909F908F9008950F93E7
:1040F0001F93CF93DF938C01EB018091B50280FF7A
:1041000003C082E2FB010995BE01F801828193811F
:104110000E9434208091B50280FF07C082E2FE0138
:10412000DF91CF911F910F910994DF91CF911F9152
:104130000F9108950F931F93CF93DF938B0125E089
:10414000289FF001299FF00D1124EB56F74FC591E0
:10415000D491FE0184912196882319F0F8010995E4
:10416000F8CFDF91CF911F910F910895AF92BF9239
:10417000CF92DF92EF92FF920F931F93CF93DF9333
:104180006B01592F5295550F550F507C482F46956E
:104190004695D52FD42B8295880F880F807C9695D5
:1041A0009695982B03E010E080E4E82E86E0F82E48
:1041B00028E2A22EB12C8D2FB7010E94855BD82F4B
:1041C000C92F862F0E946A1D882359F0F601099590
:1041D000C701B5010E94995B7B01015011099C2F19
:1041E00051F7DF91CF911F910F91FF90EF90DF90EA
:1041F000CF90BF90AF9008950F931F93CF93DF930D
:104200008B01EC01FE0184912196882319F0F801BD
:104210000995F8CFDF91CF911F910F910895CF921B
:10422000DF92EF92FF920F931F93CF93DF937A0168
:10423000C0E0D0E8623031F0C0E1D7E2603111F483
:10424000C0E0D0E130E020E0062F10E0BE010E9487
:10425000855B6C0161157105E9F42115310519F4CF
:10426000C130D10531F4605D862FF701099521E059
:1042700030E0CE01B8010E94855BEB01C6012097BA
:1042800029F7DF91CF911F910F91FF90EF90DF9071
:10429000CF9008956A30710530F3695AE5CF1092D6
:1042A000130546EF59E1FC01828193810E940F21A1
:1042B0008091130508950F931F93CF93DF93EC0123
:1042C0008B0197FF07C08DE2FB010995882799278D
:1042D0008C1B9D0BA8016AE0DF91CF911F910F917C
:1042E0000C940F21AF92BF92CF92DF92EF92FF9288
:1042F0000F931F93CF93DF938C015B01C0912E0529
:10430000D0912F050E9457526B017C01B501C80165
:104310000E942F1B0E9457529B01AC012C193D0992
:104320004E095F0969016DE473E28EE291E10E943A
:10433000FC2080912E0590912F056DE473E28C1B7B
:104340009D0B0E945B216DE473E28FE191E10E947D
:10435000FC206DE473E2C6010E945B216DE473E210
:104360008AE191E10E94FC2090E080E0DF91CF9112
:104370001F910F91FF90EF90DF90CF90BF90AF9083
:104380000895EF92FF920F931F93CF93C82F8B0145
:104390008091B50280FD08C08C2FF801CF911F914C
:1043A0000F91FF90EF90099483E2FB0109958CE552
:1043B000F8010995C132B8F485E6E82E87E0F82EB9
:1043C000CC2341F0C7010E947D5C0196E80EF91EE6
:1043D000C150F6CFB801C701CF911F910F91FF9047
:1043E000EF900C94FC20CF37B8F2B8018C2F90E0FE
:1043F000CF911F910F91FF90EF900C945B21FC01E6
:104400008AE00994FC01809110058A3011F08AE05D
:10441000099408950F931F93CF93DF938C01EB01C1
:104420008CE3FB010995F8012381822F922F990FCC
:10443000990B880F991FFC01EF53FA4EBE01808142
:1044400091810E94FC20BE0189E497E00E94FC203B
:10445000F8018281BE0190E00E945B218EE3FE01A3
:10446000DF91CF911F910F910994EF92FF920F93DB
:104470001F93FB01982F9F779093450393E0E92EBC
:10448000F12C10E000E087FD04C0F12CE12C03E0EA
:1044900010E0BA0184E0660F771F8A95E1F722E009
:1044A00030E045E453E08CE0A82FAE9FC001AF9F01
:1044B000900D11240E94C4151F910F91FF90EF9051
:1044C00008951F93CF93DF93142F009709F445C0ED
:1044D00040914D0350914E0365E0440F551F6A957E
:1044E000E1F7C0914F03D09150039A012C0F3D1F6B
:1044F000B901681B790BCB012197C40FD51F9B0114
:1045000077FF02C0215E3F4F45E0359527954A95DC
:10451000E1F760E270E00E94995BBC0188E2111152
:1045200088EAA9010E9435229E01D7FF02C0215EC0
:104530003F4F85E0359527958A95E1F7CE0160E2FA
:1045400070E00E94995BBC0189E2111189EAA9011E
:10455000DF91CF911F910C943522DF91CF911F9164
:104560000895EF920F9340914D0350914E038A307E
:1045700009F458C08D3069F060914F037091500379
:10458000883009F05AC061507109709350036093EC
:104590004F0380914F039091500380976CF080916E
:1045A0004D0390914E031092500310924F030196C9
:1045B00090934E0380934D0380914F03909150034D
:1045C00097FF0FC080914D0390914E0301979093F8
:1045D0004E0380934D038FE190E0909350038093BE
:1045E0004F0380914D0390914E03089794F1EE2470
:1045F000E39400E020E130E040E850E070E060E06B
:1046000090E080E00E94EA1480E190E00E94A9140A
:1046100080914D0390914E03019790934E038093A8
:104620004D03DFCF1092500310924F034F5F5F4F47
:1046300050934E0340934D03ACCF0E94352280919E
:104640004F039091500301969093500380934F0332
:10465000A0CF80914D0390914E0397FF1BC0EE2495
:10466000E39400E020E130E040E850E060E770E0F3
:1046700090E080E00E94EA1480914D0390914E03F7
:10468000019690934E0380934D0380EF9FEF0E941D
:10469000A914DFCF0F91EF900895CF93C82F809387
:1046A00010058A3019F48DE00E94B1228C2FCF9131
:1046B0000C94B1228CE00E944D2390E080E008959C
:1046C0008AE00E944D2310921B0510921A0561E0AA
:1046D00070E080E395E00E94405C0E941E260E94EC
:1046E0006023EB010E94321DBE010E946D232091C8
:1046F0002E0530912F052115310531F467E174E164
:1047000090E080E00E94712380912C0590912D050E
:10471000FC014281538150932D0540932C0521507B
:10472000310930932F0520932E050895CF93DF9301
:10473000EC010E94772326E030E0FC0131832083E6
:10474000D383C283DF91CF91089580912E059091FC
:104750002F050C9496230E944B52CB010C94962368
:104760000E946A1990E00C949623CF93DF93C82F90
:104770000E9477232AE030E0FC0131832083D0E0DF
:10478000D383C283DF91CF9108950F931F93CF936B
:10479000DF93DC011296ED91FC911397C081D181DA
:1047A0000D911C910E947723FC0111830083D38318
:1047B000C283DF91CF911F910F9108950F931F93A3
:1047C000CF93DF938C01EB010E947723FC011183CF
:1047D000008313821282E881F98193838283998313
:1047E0008883DF91CF911F910F910895CF93DF932D
:1047F000EC010E94772322E030E0FC01318320832A
:10480000D383C283DF91CF910895E8E4F5E030E0EF
:1048100020E0408151814230510569F44281538149
:104820004817590741F4C901880F991F880F991F2C
:10483000885B9A4F08952F5F3F4F34962C314BE0A1
:10484000340739F70C94F62310921D0510921C05BD
:1048500087E098EE0E94052490930D0580930C0547
:1048600008950F931F93CF93DF938C010E947723BA
:10487000EC01198308831B821A828FE298EE0E9452
:1048800005248C010E947723FC0111830083D383CC
:10489000C283DF91CF911F910F910895CF93DF9342
:1048A000C82FD62F0E94772328E030E0FC01318307
:1048B0002083CD27DC27CD27D383C283DF91CF91FF
:1048C00008950E9477232CE030E0FC01318320839F
:1048D0001382128208950E94612490931905809397
:1048E0001805909317058093160508951F93CF938D
:1048F000DF93182FEB01E881F98182819381212FC9
:10490000012E000C330B009771F40E947723E8818D
:10491000F98193838283FC011182108212821383B6
:104920009983888306C0811108C0822B932B9383BF
:104930008283DF91CF911F9108950E947723E881B0
:10494000F98191838083E7CFCF92DF92EF92FF923C
:104950000F931F93CF93DF9300D0CDB7DEB7C82E50
:104960007B010E9461248C019A838983F701099558
:1049700097FD14C0D12CC816D90691F08F3F980727
:1049800079F08C35910511F4F7010995BE016F5F3F
:104990007F4F0E947624F7010995EDCF10E000E0EB
:1049A000C8010F900F90DF91CF911F910F91FF9051
:1049B000EF90DF90CF90089566E175E00C94762437
:1049C000CF92DF92EF92FF920F931F93CF93DF93DB
:1049D00000D0CDB7DEB78C010E9461247C019A83A0
:1049E0008983F8018081882391F068018C3551F02A
:1049F000FFEFCF1ADF0ABE016F5F7F4F0E94762460
:104A00008601EFCF82E0C80ED11C8181F4CFC701AF
:104A10000F900F90DF91CF911F910F91FF90EF902A
:104A2000DF90CF900895EF92FF920F931F93CF9353
:104A3000DF937C01C8E4D5E08E01888199810297DB
:104A400061F48A819B8183709927892B31F4B701A6
:104A5000CE010E94B51A81110EC0249681E3C83B95
:104A6000D80751F7C7010E94E0248C0182E090E052
:104A7000F80191838083C801DF91CF911F910F913D
:104A8000FF90EF900895EF92FF920F931F93CF93B3
:104A9000DF937C01EB0110E000E0209781F0CE0174
:104AA0000E94D11C811105C067E375E1C7010E9416
:104AB00071230A80DB81C02D0F5F1F4FEECFC8012D
:104AC000DF91CF911F910F91FF90EF900895FC011E
:104AD000A081B18112968C91129713969C910280BD
:104AE000F381E02D10922B0510922A05309799F052
:104AF0000190F081E02D309759F0208131812630EE
:104B0000310531F42281338130932B0520932A051E
:104B100061E0EF2B09F460E0292F392F330F330BBD
:104B20002130310531F066E371E181E990E00E94C6
:104B300071230E94771F882329F080910C059091A2
:104B40000D05089590E080E008956CE071E18CE936
:104B500090E00E94712325E0289FF001299FF00D2D
:104B60001124E756F74FE4912E2F30E044E03595BD
:104B700027954A95E1F76217730724F462E175E11E
:104B80000E947123EF70EF3031F0E61717061CF426
:104B900064E275E1F5CF0895CF93DF93EC010E94B5
:104BA0004325BC01CE01DF91CF910C94AB25CF936F
:104BB000DF93EC01BC018BE090E00E94CC25888162
:104BC0009981DF91CF9108950E94B819882331F01F
:104BD0006DE878E090E080E00E94712308959C01E8
:104BE00023703327232B11F40C943420592F529522
:104BF000550F550F507C482F46954695252F242B51
:104C0000592F56955695482F4295440F440F407C96
:104C1000342F352B203C44E4340730F466E577E04C
:104C200090E080E00E94712321154AEF340720F0C4
:104C3000C9019A5F0C949A200C94B6200F931F938D
:104C4000CF93DF93EC018B018DE493E20E9402226B
:104C50006DE473E289EB95E10E94FC20C33088EE9D
:104C6000D80771F087E20E944D236DE473E2CE0114
:104C70000E94EF2587E20E944D2380E20E944D238F
:104C80006DE473E2C801DF91CF911F910F910C94F5
:104C9000FC20FC01828193810C94EF250F931F93DC
:104CA000CF93DF93009741F485E497E0DF91CF91B4
:104CB0001F910F910C94FC208B01EC010E94D11CE0
:104CC00028813981882391F068E070E0C9010E9451
:104CD000D71DB801892B19F08BE397E0E7CFCE0100
:104CE000DF91CF911F910F910C941228263031053E
:104CF00049F4B8018A819B81DF91CF911F910F9177
:104D00000C945B212230310569F48A819B818B30C0
:104D1000984E79F1B801CE01DF91CF911F910F919B
:104D20000C9449262A30310541F4B8018A81DF917B
:104D3000CF911F910F910C94C1212C30310541F47A
:104D4000B801CE01DF91CF911F910F910C94772084
:104D50002830310541F4B801CE01DF91CF911F9188
:104D60000F910C940A226CE277E090E080E00E94C0
:104D70007123DF91CF911F910F9108951092130528
:104D800066EF79E10E944E268091130508950F93F6
:104D90001F93CF93DF938C01EB010115110571F087
:104DA000D7FD0CC0C8010E94A61C81110DC0C8010E
:104DB0000E94BE2690E00296C81BD90BCE01DF915F
:104DC000CF911F910F910895BE0161507109F801B3
:104DD000808191810E94F126EC01F801028113810A
:104DE000DCCF0F931F93CF93DF938C01EB010E94D5
:104DF000A61C81110CC0C8010E94BE269E01281B62
:104E00003109C901DF91CF911F910F910895C80118
:104E10000E94F01F882331F0D8011296ED91FC9189
:104E200000811181BE0161507109C801DF91CF91EC
:104E30001F910F910C94C7268F929F92AF92BF92B1
:104E4000CF92DF92EF92FF920F931F93CF93DF9356
:104E50007C01962E872E6A01E901DC01ED91FC911F
:104E6000309741F510E000E002C001E010E0AA2414
:104E7000A394B12CE114F10471F0C7010E94A61CA7
:104E8000811136C0BE0188ED91E10E94FC20BE0177
:104E9000C7010E944E2689E2FE01DF91CF911F914A
:104EA0000F91FF90EF90DF90CF90BF90AF909F90C9
:104EB0008F900994808191810297A1F6A280B3809E
:104EC00002E010E0B7E3AB16B8EEBB0681F20CEDE2
:104ED00011E1F801849190E00E94321D8A159B0532
:104EE00021F20F5F1F4FF1E10C3E1F0791F7BACF80
:104EF000AB2889F088E2FE010995AE01692D782D75
:104F0000D7018D919C910E94A527F701E280F38043
:104F1000B12CA12CAFCF0115110531F080E2FE01BB
:104F2000099501501109E9CFC114D10429F480E297
:104F3000FE0109958601E1CFCE010E94FF21AE015D
:104F400060E2892D0E949B1ED8CFEF92FF920F93B3
:104F50001F93CF93DF93EC018B017A01CE010E9466
:104F6000A61C81111FC0209799F088819981029712
:104F700079F48A819B818B30984E51F4B701CE0130
:104F8000DF91CF911F910F91FF90EF900C944926E4
:104F9000B701CE01DF91CF911F910F91FF90EF905C
:104FA0000C944E26CE010E94F01F882351F087E218
:104FB000F70109950F5F1F4FEA81FB81C081D18105
:104FC000CDCF60E570E0601B710BCE010E94F12631
:104FD000B8016E5F7F4F970150E040E097FF02C03D
:104FE00041E050E0CE01DF91CF911F910F91FF90F2
:104FF000EF900C941C270F931F93CF93DF93FC012A
:10500000008111818BE790E00E946B24EC016CED34
:1050100074E2C8010E944E26CE01DF91CF911F910C
:105020000F9108950F931F93CF93DF938C01EB01A2
:1050300088E2FE010995BE01F801808191810E94FC
:105040004E26F801028113810115110581F0C80176
:105050000E94D11C882311F080E2EBCFBE0182E5D3
:1050600097E00E94FC20BE01C8010E944E2689E202
:10507000FE01DF91CF911F910F910994CF93C091C1
:10508000B5022091B5022E7F2093B5020E944E26D4
:10509000C093B502CF9108950F931F93CF93DF93E1
:1050A000FC01008111818AE790E00E946B24EC01F1
:1050B0006CED74E2C8010E943E28CE01DF91CF91D1
:1050C0001F910F9108950C944C28EA010E941E260E
:1050D0008AE30E944D2380E20E944D236DE473E237
:1050E000CE010E944E260E946023EB018A010E949D
:1050F000321DA801BE010E946528CF93DF93EC0109
:105100000E94841C0097C1F420912405309125054C
:10511000232BF1F08091260590912705892BB1F082
:105120008091280590912905892B09F16FE273E19F
:1051300089E190E00E947123CE010E94F623AC0128
:105140006BE473E189E190E00E94752881E090E0D2
:10515000880F991FFC01EC5DFA4FD183C083825EFA
:105160009A4FFC0111821082DF91CF91089582E065
:1051700090E0EECF2091240530912505821793070A
:10518000B9F0209126053091270582179307D1F0B9
:10519000209128053091290582179307B1F00E94CC
:1051A000F623AC0163E273E18AE190E00E94752886
:1051B00090E080E0880F991FFC01EC5DFA4F1182AE
:1051C0001082089581E090E0F5CF82E090E0F2CF88
:1051D0006115710531F0FB012081318126303105E7
:1051E00029F0AB016EE975E10E94752882819381F7
:1051F0000895CF92DF92EF92FF920F931F93CF9378
:10520000DF938C01D0E0C0E0EE24EA948FE7F82E23
:10521000C12C90E8D92E0115110511F1F80160811A
:10522000718184E590E00E94E8281816190664F060
:105230009601281B390BC217D30764F465ED74E19E
:1052400084E590E00E9471239701281B390B2C17ED
:105250003D07A4F3C80FD91FF80102811381DBCFEA
:10526000CE01DF91CF911F910F91FF90EF90DF90D2
:10527000CF900C9496230F931F93CF93DF938C01C1
:10528000FC016081718185E590E00E94E828EC01D5
:10529000F801028113810115110569F48827992706
:1052A0008C1B9D0BC115D048F9F465ED74E185E5C3
:1052B00090E00E947123F8016081718185E590E0A2
:1052C0000E94E8289C0118161906A4F021503048C5
:1052D0002C173D0754F3C81BD90BF8010281138129
:1052E0000115110541F7CE01DF91CF911F910F916B
:1052F0000C9496233058C217D3076CF7D6CFCF92B1
:10530000DF92EF92FF920F931F93CF93DF938C0165
:10531000C1E0D0E00115110511F1F8016081718142
:1053200086E590E00E94E8289E01DC010E94F75B80
:105330006B017C01F0E8DF0EE11CF11CC114D1040B
:1053400021E0E206F10430F065ED74E186E590E0DD
:105350000E947123EB01F80102811381DBCFCE01A2
:10536000DF91CF911F910F91FF90EF90DF90CF9041
:105370000C9496230F931F93CF93DF938C01FC0122
:105380006081718187E590E00E94E828EC01F801D6
:105390000281138101151105F9F0F8016081718115
:1053A00087E590E00E94E828BC01892B31F464EC89
:1053B00074E187E590E00E947123C115F0E8DF07F2
:1053C00031F46F3F760719F465ED74E1F2CFCE0149
:1053D0000E94995BEB01DBCFCE01DF91CF911F9152
:1053E0000F910C9496230F931F93CF93DF938C010F
:1053F000DC016D917C9189E590E00E94E828D82F2E
:10540000C92FD8011296ED91FC916081718189E5D7
:1054100090E00E94E8289C01892B31F464EC74E14F
:1054200089E590E00E9471238D2F9C2FB9010E9485
:10543000995BCC1FCC27CC1F432F441F4427441F0C
:10544000C41711F0820F931FDF91CF911F910F911D
:105450000C949623FC01608171818AE590E00E94A2
:10546000E8288F3FFFE79F0731F465ED74E18AE597
:1054700090E00E94712301960C949623FC016081B8
:1054800071818BE590E00E94E8288115F0E89F0784
:1054900031F465ED74E18BE590E00E947123019792
:1054A0000C949623FC01608171818CE590E00E9450
:1054B000E8288115F0E89F0731F465ED74E18CE58B
:1054C00090E00E94712397FF03C091958195910907
:1054D0000C949623FC01608171818DE590E00E941F
:1054E000E8280E94EF1C0C9496230F931F93CF93F0
:1054F000DF93EC01688179818EE590E00E94E828D5
:105500008C010A80DB81C02D209751F06881798160
:105510008EE590E00E94E8280817190794F7F0CF6D
:10552000C801DF91CF911F910F910C9496230F9397
:105530001F93CF93DF93EC01688179818FE590E031
:105540000E94E8288C010A80DB81C02D209751F051
:10555000688179818FE590E00E94E82880179107A3
:1055600094F7F0CFC801DF91CF911F910F910C9468
:105570009623EF92FF920F931F93CF93DF93EC014B
:105580002097E1F06881798180E690E00E94E82828
:105590007C010A80DB81C02D8E010115110581F38C
:1055A000F8016081718180E690E00E94E828E816A9
:1055B000F90679F0F80102811381EFCF80910C0593
:1055C00090910D05DF91CF911F910F91FF90EF907A
:1055D000089590E080E0F6CFBF92CF92DF92EF92F5
:1055E000FF920F931F93CF93DF936C017B01142FD6
:1055F000B22EFB01608171810E94E828EC01F70165
:10560000E280F380E114F104D1F0F701608171814F
:10561000C6010E94E828111103C0C817D907ECF091
:10562000011103C0C817D907C1F0B11003C08C170E
:105630009D079CF0F701E280F380EC01E3CF8091BD
:105640000C0590910D05DF91CF911F910F91FF9067
:10565000EF90DF90CF90BF90089590E080E0F3CF7F
:105660000F9301E020E040E0BC0181E690E00E9461
:10567000EC2A0F9108950F9300E020E041E0BC0177
:1056800082E690E00E94EC2A0F9108950F9301E0CA
:1056900020E041E0BC0183E690E00E94EC2A0F91FB
:1056A00008950F9300E021E040E0BC0184E690E023
:1056B0000E94EC2A0F9108950F9301E021E040E051
:1056C000BC0185E690E00E94EC2A0F910895FC0150
:1056D0006081718186E690E00E94E828181619061C
:1056E0002CF480910C0590910D05089590E080E0D8
:1056F0000895FC016081718187E690E00E94E828AE
:1057000097FF05C080910C0590910D05089590E0DC
:1057100080E00895FC016081718188E690E00E943C
:10572000E828892B29F480910C0590910D050895A6
:1057300090E080E00895FC016081718189E690E04D
:105740000E94E82880FF05C080910C0590910D050E
:10575000089590E080E00895FC01608171818AE6FF
:1057600090E00E94E82880FD05C080910C05909192
:105770000D05089590E080E00895FC01608171813D
:105780008FE690E00E94E8280C94B5230F931F93B6
:10579000CF93DF93EC010FEF1FEF209761F068814B
:1057A00079818CE790E00E94E828082319230A8079
:1057B000DB81C02DF2CFC801DF91CF911F910F91F6
:1057C0000C9496230F931F93CF93DF93EC0110E07B
:1057D00000E0209761F0688179818DE790E00E9478
:1057E000E828082B192B0A80DB81C02DF2CFC801D5
:1057F000DF91CF911F910F910C9496230F931F93DC
:10580000CF93DF93EC0110E000E0209761F0688116
:1058100079818EE790E00E94E828082719270A80FE
:10582000DB81C02DF2CFC801DF91CF911F910F9185
:105830000C949623FC01608171818FE790E00E94B7
:10584000E828809590950C9496230F931F93CF93FF
:10585000DF938C01DC016D917C9180E890E00E94E7
:10586000E828EC01D8011296ED91FC9160817181DC
:1058700080E890E00E94E82897FD0DC0FE0102C07C
:10588000EE0FFF1F8A95E2F7CF01DF91CF911F91B5
:105890000F910C9496239195819591099E0102C0D8
:1058A000359527958A95E2F7C901EFCF1F93CF93DE
:1058B000DF93EC016881798181E890E00E94E8281B
:1058C000182FEA81FB816081718181E890E00E945C
:1058D000E82802C0959587951A95E2F780FF08C0E1
:1058E00080910C0590910D05DF91CF911F91089546
:1058F00090E080E0F9CFFC016081718188E990E05F
:105900000E94E8280E94E154892B29F080910C051F
:1059100090910D05089590E080E00895CF93DF9376
:10592000FC01C081D181BE018FE990E00E94E8288E
:10593000BC01990F880B990B0E947C52CE01DF911C
:10594000CF910895CF93DF93FC01C081D181BE0137
:1059500081EA90E00E94E8280E94C61FCE01DF91F4
:10596000CF910895CF92DF92EF92FF920F931F9302
:10597000CF93DF931F92CDB7DEB78C01DC016D9121
:105980007C9182EB90E00E94E8287C01F801028182
:105990001381D8016D917C9182EB90E00E94E82800
:1059A0006C01D8011296ED91FC916081718182EBBE
:1059B00090E00E94E828898321E030E043E050E055
:1059C000B601C7010E94611461E070E0CE0101964A
:1059D0000E94AD1390E080E00F90DF91CF911F9176
:1059E0000F91FF90EF90DF90CF900895FC016081C0
:1059F000718190E080E06115710521F083EB90E00A
:105A00000E94E8280E94A9140C9496236115710540
:105A100031F0FB01208131812A30310529F0AB01C1
:105A200067E073E10E947528828193810895FC01EB
:105A3000608171818EE690E00E94062D0C94962381
:105A4000AF92BF92CF92DF92EF92FF920F931F938C
:105A5000CF93DF9300D0CDB7DEB76C01DC01129697
:105A6000AD90BC90F50102811381D8016D917C91BC
:105A70001A826115710509F445C0FB01808191818D
:105A8000069709F03FC081EB90E00E94E8288983E7
:105A9000D6016D917C9181EB90E00E94E8286C0129
:105AA000F5016081718181EB90E00E94E8285C0142
:105AB000D8011296ED91FC916081718182E090E0B5
:105AC0006115710521F081EB90E00E94E828F12C2E
:105AD000E12C03E010E09C01AE014F5F5F4FB50188
